:10000000000009308A00E129FF00030E8301A100EE
:100010000A08A0008A010408A2007708A300780853
:10002000A4007908A5007A08A600831383128B1D0B
:100030001B280B1842280B1E1F288B1845288C30B4
:100040008400801E25288C1A48288C308400001CCF
:100050002B280C184B288C308400801C31288C18DD
:100060004E28220884002308F7002408F8002508F9
:10007000F9002608FA0020088A00210E8300FF0EEE
:100080007F0E09008A110A12772A8A110A12D22ECB
:100090008A110A12F62A8A110A12DB2E8A110A1212
:1000A000BA2A0A108A100A11583E03188A0A8200D6
:1000B0000034C134813440340134C034803441349C
:1000C0000134C034803441340034C134813440348C
:1000D0000134C034803441340034C134813440347C
:1000E0000034C134813440340134C034803441346C
:1000F0000134C034803441340034C134813440345C
:100100000034C134813440340134C034803441344B
:100110000034C134813440340134C034803441343B
:100120000134C034803441340034C134813440342B
:100130000134C034803441340034C134813440341B
:100140000034C134813440340134C034803441340B
:100150000034C134813440340134C03480344134FB
:100160000134C034803441340034C13481344034EB
:100170000034C134813440340134C03480344134DB
:100180000134C034803441340034C13481344034CB
:100190000134C034803441340034C13481344034BB
:1001A0000034C134813440340134C03480344134AB
:1001B0000134C034803441340034C134813440349B
:1001C0000034C134813440340134C034803441348B
:1001D0000034C134813440340134C034803441347B
:1001E0000134C034803441340034C134813440346B
:1001F0000034C134813440340134C034803441345B
:100200000134C034803441340034C134813440344A
:100210000134C034803441340034C134813440343A
:100220000034C134813440340134C034803441342A
:100230000034C134813440340134C034803441341A
:100240000134C034803441340034C134813440340A
:100250000134C034803441340034C13481344034FA
:100260000034C134813440340134C03480344134EA
:100270000134C034803441340034C13481344034DA
:100280000034C134813440340134C03480344134CA
:100290000034C134813440340134C03480344134BA
:1002A0000134C034803441340034C13481344034AA
:1002B0000A148A100A115F3E03188A0A8200003469
:1002C000C034C1340134C33403340234C234C634BC
:1002D00006340734C7340534C534C4340434CC344C
:1002E0000C340D34CD340F34CF34CE340E340A34C4
:1002F000CA34CB340B34C93409340834C834D83444
:1003000018341934D9341B34DB34DA341A341E343B
:10031000DE34DF341F34DD341D341C34DC3414345B
:10032000D434D5341534D73417341634D634D234C3
:1003300012341334D3341134D134D0341034F03473
:1003400030343134F1343334F334F234323436343B
:10035000F634F7343734F53435343434F4343C344B
:10036000FC34FD343D34FF343F343E34FE34FA3443
:100370003A343B34FB343934F934F83438342834E3
:10038000E834E9342934EB342B342A34EA34EE34BB
:100390002E342F34EF342D34ED34EC342C34E4345B
:1003A00024342534E5342734E734E6342634223443
:1003B000E234E3342334E13421342034E034A03413
:1003C00060346134A1346334A334A23462346634BB
:1003D000A634A7346734A53465346434A4346C344B
:1003E000AC34AD346D34AF346F346E34AE34AA34C3
:1003F0006A346B34AB346934A934A8346834783443
:10040000B834B9347934BB347B347A34BA34BE343A
:100410007E347F34BF347D34BD34BC347C34B4345A
:1004200074347534B5347734B734B63476347234C2
:10043000B234B3347334B13471347034B0345034B2
:10044000903491345134933453345234923496343A
:1004500056345734973455349534943454349C344A
:100460005C345D349D345F349F349E345E345A3442
:100470009A349B345B3499345934583498348834E2
:100480004834493489344B348B348A344A344E34BA
:100490008E348F344F348D344D344C348C3444345A
:1004A0008434853445348734473446348634823442
:1004B00042344334833441348134803440343630E0
:1004C0003507840083130317420880000313B50A1D
:1004D00035081A3C031D762AAF142F110317431C4D
:1004E000742A03132F15031703138B110800FF3011
:1004F0008316860083120608D0005008EF3A0319CD
:100500008B2A303A0319912A603A0319982AC03A83
:1005100003199F2AA62A0317C201C30103135F22EE
:10052000A62A01300317C200C30103135F22A62AC3
:100530000317C2010130C30003135F22A62A013052
:100540000317C200C30003135F22A62A0B108A11EF
:100550000A12312883168C1083120317C30803195B
:10056000B82A031391018C1083168C14831203177D
:10057000031308005208023C031DCC2AD308031DB4
:10058000CC2AD408031DCC2AAF19CC2A02308316FA
:10059000A1028312AF15CD2AAF11FF30D400D300D2
:1005A000D2010317C3010313AA228C108A110A1265
:1005B00031288C1ED92A1808D1001A08F800D11C3D
:1005C000E32A181218160800540803174306C4003B
:1005D000440803135120F80053087806D400031789
:1005E000440803135821F800D3000800D9227808E2
:1005F0000317C2000313AF193A2BD208031D0F2BA8
:10060000FF30D400D3000317420883160313A00061
:100610008312D20A8316A101A3012F2B8312520B3E
:10062000192B0317420883160313A2008312D20A60
:10063000302B5208023C031D302B831621083F3C0F
:100640000318242B3F30A100A4302107840083131A
:10065000831203174208800083160313A10A831232
:1006600003174208C3000313E42201300317C30039
:100670000313AA228C128A110A1231280830F800BA
:1006800000008711D51155088316870000008312DA
:100690000317C80D03130712031C542B55165508D6
:1006A00083168700582B831255125508831687002E
:1006B00000008312D5155508831687008312871D05
:1006C0005F2BF80B402B00008711D51155088316BE
:1006D0008700000083125516550883168700000016
:1006E00000008312D5155508831687008312871DD5
:1006F000772BF8010000071A78148711D5115508D7
:100700008316870083120712551255088316870037
:100710008312080008300317C9007708CA000313C2
:10072000551655088316870000008312D515550805
:10073000831687008312871D9B2B071A0314071E3D
:100740000310F80D0000D511550883168700831299
:1007500087110317C90B8F2B0313551655088316E2
:10076000870000008312071203174A080319BF2BE2
:1007700003135512550883168700831203170000D0
:100780000313D5155508831687008312871DC62BC2
:1007900000008711D51155088316870000008312C9
:1007A0000712551255088316870083120800031795
:1007B0004908CA000310CA0C7830CA054A0CF70071
:1007C000F70C3F30F70577084A07CB0049080F3987
:1007D0004B07F800031308005516550883168700C9
:1007E00000008312D5155508831687000000831278
:1007F00007125512550883168700000083128711CF
:10080000D511550883168700D03083120317C8000E
:1008100003133E2301300317C80003133E2355166C
:1008200055088316870000008312D51555088316D6
:10083000870000008312871D1B2C071255125508D4
:1008400083168700000083128711D511550883167F
:100850008700D13083120317C80003133E230130F1
:10086000F7008A2378087F390317C300C9000313F0
:10087000D7237808A9000130F7008A2378083F3988
:100880000317C300C9000313D7237808AA00013057
:10089000F7008A23780807390317C300C900031338
:1008A000D72378080317C2000130F70003138A2307
:1008B00078083F390317C300C9000313D72378080A
:1008C000AB000130F7008A2378081F390317C300F3
:1008D000C9000313D7237808AC000130F7008A233E
:1008E00078080317C300C9000313D7237808AE00A4
:1008F000551255088316870000008312D515550838
:10090000831687008312871D832C0000872C00002C
:10091000551655088316870000008030831258074B
:100920000317C200031359080317C3000318C30AAF
:1009300042088D000313300803178C0083168C13B4
:100940000C15831203130B08F7008B138316031780
:1009500055308D00AA308D008C148C18AD2C0C11E4
:100960007708831203138B04D80A0319D90A80303D
:1009700058070317C200031359080317C3000318CD
:10098000C30A42088D000313290803178C0083163D
:100990008C130C15831203130B08F7008B138316AB
:1009A000031755308D00AA308D008C148C18D62C6E
:1009B0000C117708831203138B04D80A0319D90A80
:1009C000803058070317C200031359080317C300E8
:1009D0000318C30A42088D0003132A0803178C006A
:1009E00083168C130C15831203130B08F7008B135B
:1009F0008316031755308D00AA308D008C148C1887
:100A0000FF2C0C117708831203138B04D80A0319E7
:100A1000D90A803058070317C20003135908031777
:100A2000C3000318C30A42088D0003132B080317E1
:100A30008C0083168C130C15831203130B08F7001C
:100A40008B138316031755308D00AA308D008C143C
:100A50008C18282D0C117708831203138B04D80AE5
:100A60000319D90A803058070317C2000313590825
:100A70000317C3000318C30A42088D0003132C0890
:100A800003178C0083168C130C15831203130B08A9
:100A9000F7008B138316031755308D00AA308D0095
:100AA0008C148C18512D0C117708831203138B04AE
:100AB000D80A0319D90A803058070317C200031354
:100AC00059080317C3000318C30A42088D00031313
:100AD0002D0803178C0083168C130C158312031337
:100AE0000B08F7008B138316031755308D00AA30BF
:100AF0008D008C148C187A2D0C1177088312031337
:100B00008B04D80A0319D90A803058070317C2008A
:100B1000031359080317C3000318C30A42088D00C2
:100B200003132E0803178C0083168C130C158312E5
:100B300003130B08F7008B138316031755308D0032
:100B4000AA308D008C148C18A32D0C1177088312F9
:100B500003138B04D80A0319D90A803058070317E6
:100B6000C200031359080317C3000318C30A003057
:100B700003132F1801300317C40042088D004408E6
:100B80008C0083168C130C15831203130B08F700CB
:100B90008B138316031755308D00AA308D008C14EB
:100BA0008C18D02D0C117708831203138B04D80AEC
:100BB0000319D90A551655088316870000008312B9
:100BC000D5155508831687000000831207125512A9
:100BD000550883168700000083128711D511550828
:100BE00083168700D03083120317C80003133E23F7
:100BF00001300317C80003133E235516550883160A
:100C0000870000008312D515550883168700000061
:100C10008312871D092E0712551255088316870067
:100C2000000083128711D511550883168700D13033
:100C300083120317C80003133E230130F7008A23F1
:100C400078087F390317C300C9000313D723780836
:100C5000A9000130F7008A2378083F390317C30041
:100C6000C9000313D7237808AA000130F7008A23AC
:100C7000780807390317C300C9000313D72378087E
:100C80000317C2000130F70003138A2378083F39A5
:100C90000317C300C9000313D7237808AB00013042
:100CA000F7008A2378081F390317C300C90003130C
:100CB000D7237808AC000130F7008A23780803179F
:100CC000C300C9000313D7237808AE005512550896
:100CD0008316870000008312D515550883168700F8
:100CE0008312871D712E0000752E000055165508C1
:100CF0008316870000008312DA0A5A0DF700F70DF9
:100D0000F70DF830F7057708FF3E5802031D8F2EC8
:100D1000D908031D8F2ED9010230D800DA018130A5
:100D200003178D0003135A0803178C0083168C13C6
:100D30000C15831203130B08F7008B13831603178C
:100D400055308D00AA308D008C148C18A52E0C11F6
:100D50007708831203138B0408002F1CBC2E831604
:100D600085108312851483160511831205118316CD
:100D7000851183128515CA2E831688108312881454
:100D80008316081183120811D5125508831687009F
:100D90008312871683160C140B3083128F00DC30FD
:100DA0008E0008002F10FF30B000EC23AD268B1012
:100DB0008A110A1231283108043C031CE12EB10AC1
:100DC000022FB1012F1CF12E83168510831285107E
:100DD000831605118312051583168511831285115B
:100DE000FF2E831688108312881083160811831231
:100DF0000815D512550883168700831287128316AB
:100E00000C1083120C108A110A1231288C1E0A2F22
:100E1000D922062F8C1283168C168312080000101C
:100E200006272030F80006389200F9308316920029
:100E3000C03083128B048A150A120D2A0317B401DD
:100E40003408193C031C2B2F3630340784008313DD
:100E50008001B40A202F0313B50108001E27831652
:100E6000811383128B15C0308B048A150A12102A45
:100E7000803003178D008C0183168C130C158312A0
:100E800003130B08F7008B138316031755308D00DF
:100E9000AA308D008C148C184B2F0C1177088312FC
:100EA00003138B04813003178D008C0183168C1380
:100EB0000C15831203130B08F7008B13831603170B
:100EC00055308D00AA308D008C148C18652F0C11B4
:100ED0007708831203138B04D9010230D800DA019A
:100EE000080003178D018C0183168C130C158312D7
:100EF00003130B08F7008B138316031755308D006F
:100F0000AA308D008C148C18832F0C117708831253
:100F100003138B04013003178D008C0183168C138F
:100F20000C15831203130B08F7008B13831603179A
:100F300055308D00AA308D008C148C189D2F0C110B
:100F40007708831203138B048A150A12162A0317D3
:100F50003C08F8013B020318B02F3B08F700BC2FF8
:100F6000F7010830BD00BB0DF70D3C0877020318F0
:100F7000F700F80DBD0BB32F031308000317390852
:100F8000BB000A30BC000313A727780E0317BA0072
:100F9000F030BA053908BB000A30BC000313A7279C
:100FA000770803173A07F8000313080000302F19D9
:100FB0000130F8008A150A12F12A353084008317AF
:100FC00000080319F12F0130F800F701F70BE62FA5
:100FD000F80BE52F4A30F700F70BEC2FEF2F800BC3
:040FE000E32F0800F3
:10100000551655088316870000008312D51555081C
:1010100083168700000083120712551255088316A5
:101020008700000083128711D511550883168700A9
:101030008312A7018B1BA7178B13D0300317C8008F
:101040008A1103133E238A15A71B8B17A7018B1B3D
:10105000A7178B130317C8018A1103133E238A15A0
:10106000A71B8B17A7018B1BA7178B130317C8018F
:101070008A1103133E238A15A71B8B170317340805
:10108000B9008A110313BE278A1578080317B9001F
:101090000313A7018B1BA7178B1303173908C8006D
:1010A0008A1103133E238A15A71B8B1703173508D4
:1010B000B9008A110313BE278A1578080317B900EF
:1010C0000313A7018B1BA7178B1303173908C8003D
:1010D0008A1103133E238A15A71B8B17A7018B1BAD
:1010E000A7178B1302300317C8008A1103133E237E
:1010F0008A15A71B8B1703173608B9008A1103132B
:10110000BE278A1578080317B9000313A7018B1BA4
:10111000A7178B1303173908C8008A1103133E233E
:101120008A15A71B8B1703173708B9008A110313F9
:10113000BE278A1578080317B9000313A7018B1B74
:10114000A7178B1303173908C8008A1103133E230E
:101150008A15A71B8B1703173808B9008A110313C8
:10116000BE278A1578080317B9000313A7018B1B44
:10117000A7178B1303173908C8008A1103133E23DE
:101180008A15A71B8B175512550883168700000078
:101190008312D5155508831687008312871DCE2824
:1011A0000000D2280000551655088316870000005D
:1011B00083120800AF1C2229AF10B2010317B60139
:1011C0000130B500B4003408083C031CF628363062
:1011D000340784008313000BF12835080313B2078A
:1011E00003170310B50DB60DB40AE3280313B401B9
:1011F000B3010317B6010130B5000930B40034085B
:10120000183C031C1A293630340784008313000B62
:10121000152935080313B307031736080318360FCB
:10122000122915290313B40703170310B50DB60DC2
:10123000B40AFF288A1103131E278A158B15013063
:10124000F80024290030F8008A150A12EC2AAF1998
:101250002D290030F800382935298316A21F34299A
:101260002408A3000130A1008312AF110130F8005F
:101270008A150A12CA2B03173F0803130C1E3E29B6
:101280009900A7018B1BA7178B1303173F08C300F7
:101290008A110313E4228A15A71B8B172230F7004B
:1012A000F70B502900000800FF30D400D300AF1125
:1012B00083168C127930F700F70B5C298312031721
:1012C0003D08BF0003133B2103173E08BF00031373
:1012D0003B21080054080317BE00031353080317EB
:1012E000BD003E08BF0003133B2103173D08BF00AC
:1012F00003133B218316981C7B297930F700F70BE9
:101300007F298A11831206278A15FF30D400D30063
:1013100008000317B801350838020318AE2934084D
:101320008D0083168C130C1483120C08B600B40ABB
:1013300034088D0083168C130C1483120C08B7002C
:10134000B40A0310380D103E84008317840A36084F
:101350008000840337088000B80A8B2903138A159C
:101360000A12312C0317B801350838020318DD2999
:1013700080303407B90039088D0083168C130C14A3
:1013800083120C08B600B40A80303407B90039085B
:101390008D0083168C130C1483120C08B700B40A4A
:1013A0000310380D103E84008317840A360880002D
:1013B000840337088000B80AB42903138A150A1277
:1013C0008D2C840183131F3083051430AD00B101CF
:1013D000B401B301B501AF10D101193083169900E2
:1013E000A6309800903083129800AF11D201FF30E0
:1013F000D500D701D601D9010230D800DA01831611
:101400001F149F141F159F1107309C008312031790
:10141000B201B1018A1103130F2F8A158A112E2FE1
:101420008A158A1138278A158A11712F8A15083072
:10143000A900AA000930AB000130AC000E30AE00AC
:1014400029080317B40003132A080317B500031370
:101450002B080317B60003132C080317B700031358
:101460002E080317B8000313002003178D018C0109
:1014700083168C130C15831203130B08F7008B13C0
:101480008316031755308D00AA308D008C148C18EC
:10149000472A0C117708831203138B0401300317BA
:1014A0008D008C0083168C130C15831203130B080C
:1014B000F7008B138316031755308D00AA308D006B
:1014C0008C148C18612A0C117708831203138B0477
:1014D000023003178D0001308C0083168C130C151D
:1014E000831203130B08F7008B1383160317553071
:1014F0008D00AA308D008C148C187C2A0C11770872
:10150000831203138B04033003178D005B308C00B0
:1015100083168C130C15831203130B08F7008B131F
:101520008316031755308D00AA308D008C148C184B
:10153000972A0C117708831203138B0404300317C6
:101540008D00A0308C0083168C130C1583120313AE
:101550000B08F7008B138316031755308D00AA3044
:101560008D008C148C18B22A0C1177088312031387
:101570008B04053003178D0003308C0083168C1309
:101580000C15831203130B08F7008B138316031734
:1015900055308D00AA308D008C148C18CD2A0C117A
:1015A0007708831203138B04831688108312881024
:1015B000831608118312081583161F149F141F1514
:1015C0009F118113B530831290000B1683160113FF
:1015D000C03083128B04DA28F8080319C92B8A114A
:1015E000D62F8A152F1078182F142F1C0D2B831629
:1015F00005128312051602300317B400FA30B50045
:101600008A110313DD278A150317B40BFE2A8316EC
:101610000313051283120512262B55115508831644
:1016200087008312071502300317B400FA30B500A3
:101630008A110313DD278A150317B40B162B031326
:1016400055115508831687008312071132080317B6
:10165000B000031334080317B20003133308031751
:10166000B1000313D7010230D600013003178D00FB
:1016700083168C130C1483120C08B9000313B001E9
:1016800003173908031330020318B62B0317B701E9
:10169000B6010313560803178D0083168C130C1420
:1016A00083120C08B5000313D60A0319D70A56088B
:1016B00003178D0083168C130C1483120C08B400CE
:1016C0000313D60A0319D70AFA0103173408B7001F
:1016D000B6010313560803178D0083168C130C14E0
:1016E00083120C08B4000313D60A0319D70A031790
:1016F0003408B6070318B70A0313560803178D00FA
:1017000083168C130C1483120C08B8000313D60A2A
:101710000319D70A031735083002031DB32B360807
:101720003102031DB32B37083202031DB32B3808D7
:10173000013A03130319A32B033A0319A92B013A06
:101740000319AF2BB22B2F18A82B0130F800BA2B9E
:10175000B22B2F1CAE2B0130F800BA2BB22B01306C
:10176000F800BA2B03170313B00A402BFE30B00069
:101770000030F800F8080319C02B8A11AD268A152D
:10178000A7018B1BA7178B138A11EC238A15A71BA4
:101790008B172729F8080319E92D1030F700F70BEC
:1017A000CF2B00008316200BD62BD92BA008031DAE
:1017B000EA2D2208053A83120319E82B063A031989
:1017C000242C073A0319802C143A0319DC2CCB2D56
:1017D0008A1138278A150317B501831603132608C3
:1017E00083120317B4003408B500B4010130B60009
:1017F000B80183160313250883120317B7003508B1
:10180000BA003408B9003608BD000530BE00031325
:10181000542103173808BB00BF0003133B210317F3
:101820003708BB00BF0003133B2103173A08BB0076
:10183000BF0003133B2103173908BB00BF0003138C
:101840003B216A210000E92D831625088312031726
:10185000B40083160313270883120317B50003137C
:10186000892903108316270D83120317B400013052
:10187000B5003408B6000130B8001030B7003508A4
:10188000BD000330BE000313542103173608BF0008
:1018900003133B210317B9013608390203187C2CC6
:1018A0003808FA0037088400831338188317840A2D
:1018B0000008BB0084030008BA003B08BC00BF005E
:1018C00003133B2103173808FA00370884008313F9
:1018D00038188317840A0008BB0084030008BA0084
:1018E000BC00BF0003133B2102300317B7070318E6
:1018F000B80A0230B9074C2C03136A210000E92D05
:101900008316250883120317B400831603132708D0
:1019100083120317B5000313B22903108316270D92
:1019200083120317B4000130B5003408B60001304B
:10193000B8001030B7003508BD000430BE000313F6
:10194000542103173608BF0003133B210317B901C5
:10195000360839020318D82C3808FA0037088400F2
:10196000831338188317840A0008BB008403000817
:10197000BA003B08BC00BF0003133B210317380823
:10198000FA0037088400831338188317840A000884
:10199000BB0084030008BA00BC00BF0003133B2156
:1019A00002300317B7070318B80A0230B907A82C8A
:1019B00003136A210000E92D831629088312A90068
:1019C00083162A088312AA0083162B088312AB0001
:1019D00083162C088312AC0083162D088312AD00E9
:1019E00083162E088312AE0029080317B4000313D0
:1019F0002A080317B50003132B080317B6000313B7
:101A00002C080317B70003132E080317B80003139D
:101A1000002003108316250D8312D600D70103186A
:101A2000D70A560803178D00831603132F08831255
:101A300003178C0083168C130C15831203130B08E9
:101A4000F7008B138316031755308D00AA308D00D5
:101A50008C148C18292D0C117708831203138B0416
:101A6000D60A0319D70A560803178D0083160313E5
:101A70003008831203178C0083168C130C15831205
:101A800003130B08F7008B138316031755308D00D3
:101A9000AA308D008C148C184B2D0C1177088312F2
:101AA00003138B04D60A0319D70A0D300317B300AA
:101AB0008316031328088312031733020318882D93
:101AC000A4303307840083130008B40003135608BE
:101AD00003178D0034088C0083168C130C158312A9
:101AE00003130B08F7008B138316031755308D0073
:101AF000AA308D008C148C187B2D0C117708831262
:101B000003138B04D60A0319D70A0317B30A582DF7
:101B100083160313240883120317B50083160313D7
:101B2000250883120317B4008316031326088312B3
:101B30000317B70083160313270883120317B60091
:101B40000130B8003508BA003408B9003708BC00C5
:101B50003608BB003808BD001030BE000313542106
:101B600003173A08BD00BF0003133B2103173908D0
:101B7000BD00BF0003133B2103173C08BD00BF009D
:101B800003133B2103173B08BD00BF0003133B2198
:101B90006A210000E92D01300317B400B601831655
:101BA0000313220883120317B5000130B70035086C
:101BB0008038B8003608B9003408BD003808BE00C7
:101BC0000313542103173708BF0003133B216A2175
:0A1BD000000083168312EB2AEC2DAF
:02400E003B373E
:00000001FF
;PIC16F877A
;CRC=575E  CREATED="25-ene-14 13:47"
